:020000040000FA
:030000000219FDE5
:03000B000200AA46
:03002B0002016867
:03005B000202FBA3
:030073000202E1A5
:1000800002030406080C10182030406080040608A3
:100090000C10182030406080A0C000070F1F3F0DDB
:1000A0000D04050D050305030302C2AFC0D0C0E077
:1000B00030684F206217E5256002E473E525F4F50A
:1000C0008A758B00D262D0E0D0D0D2AF3285268A3A
:1000D000C262E526F46035306803207210758B002B
:1000E000D0E0D0D0C295C293C297D2AF32C295C2EF
:1000F00093C297206E0C2066097406D5E0FDE57E5C
:100100004290758B00D0E0D0D0D2AF32758A00C259
:100110008DD262210201BC306805206602D29501B1
:10012000BC306805206602D29701BC3068052066A5
:1001300002D29301BCC29430680A2066077406D5C7
:10014000E0FDD29501BCC29630680A2066077406AD
:10015000D5E0FDD29701BCC29230680A20660774D0
:1001600006D5E0FDD29301BCC2AFC2AD53E6EFC0ED
:10017000D0C0E0D2D3D2AFC2CEE52A600720744906
:10018000152A21C97800790020742EE580307E017F
:10019000F430E50278FF53DACF207E0343DA2030D3
:1001A0007E0343DA10C2D8C271E580307E01F4309C
:1001B000E50279FFC3E89970CB306103752A1820F6
:1001C0007403752A18885FD27020740DE52B6004C3
:1001D000152B21D943DA01C2D82070024137A85F1C
:1001E000206102C2702074367982B70431C3E8946A
:1001F000F0400374F0F8E8C4540F28F87984B7038A
:1002000002411EC313C3138721200802C313200A0F
:1002100006C3C898F8411E28F8500374FFF88822D6
:10022000E52D54066011E533C313C31324062522BC
:10023000F52250037522FF7882B60459852224A83E
:1002400024C3E52495644002A864C3E8956640028F
:10025000A8668825E56970024188C3E8AA699A50B2
:1002600003E8FAE4F9EAC333FBE56BF45B29400DDC
:10027000256AF8E56A6002156A400B41880AC3E501
:100280006A9A5002056A78FF8826C26EC3E52694F2
:10029000F84002D26EC3E52594404002D26420CFDC
:1002A0000AD0E0D0D043E610D2AD32C2CF053A78C2
:1002B00001E52A6005307402152AC3E55F94014008
:1002C0000575620041D7756300756C00E562240115
:1002D000F56250037562FFD0E0D0D043E610D2AD96
:1002E00032C2AFC0D053E67FC2607591008556948C
:1002F000855795759104D0D0D2AF32C2AF53E6EF97
:10030000C2ADC0D0C0E0C0F0D2D3D2AFA8FBA9FC30
:10031000C2D8307102616253DACF207E0343DA1013
:10032000307E0343DA20D271E580307E01F420E58F
:1003300002613988278928A18653DACF207E0343BA
:10034000DA20307E0343DA10C2D8C271307402A1C1
:10035000727800E580307E01F430E502A172885F9A
:10036000A15A53DACF207E0343DA20307E0343DAEA
:1003700010C271206102813B53DACF207E0343DA41
:1003800010307E0343DA20C2D8D271885A895BC309
:10039000E89558F8E99559F97B007E087A00C3E89A
:1003A000948CE994005005755E00812D882178A217
:1003B000E6A8216055C3E894C8E994005008E4D247
:1003C000E4FB7A0A8108C3E89468E994015008E4E0
:1003D000D2E3FB7A0F8108C3E894D0E99402500875
:1003E000E4D2E2FB7A1E8108C3E894A0E9940550A8
:1003F00008E4D2E1FB7A3C8108C3E89498E99408C8
:100400005008E4D2E0FB7A787E00C3E8955CFCE912
:10041000955DFD30E70AECF42401FCEDF43400FDB9
:10042000755E00C3EC9AED9E5003755E01885C8991
:100430005D855A58855B597802A15AC3E89527F81B
:10044000E99528F9307C02A13E307B02A13E307A4A
:1004500002A137207502815EE9FDE8FC817DE9C3D8
:1004600013F9E813F8307902A137E9C313F9E81357
:10047000F8307802A137E9C313FDE813FC206126A8
:10048000C3EC941CED940240028194ED7018C3EC0F
:1004900094C850120529C3E529940A5002A1727527
:1004A0005F00D270A172E529600215297888E6F90B
:1004B0007400207F087896B90302789EE624FAFE3D
:1004C000E43400FFC3EC9EFCED9FFD9208B90310DD
:1004D000A2085007207609D27681E0307602C276F3
:1004E000A2085015B9030CECF42401FCEDF434001F
:1004F000FD800678007900A13EB90315EC33FCEDD0
:1005000033FDC3EC940AFCED9400FD50047C007DA7
:1005100000C3EC94FFED9400400678FF7900A13E03
:10052000EC8575F0A4C5F0A2F733F879004002809D
:100530002978FF79008023E9C313F9E813F8307CA8
:100540000EE9600278FFC3E81338F8E43400F9C319
:10055000E894FFE99400400278FF885FD270206140
:1005600002A172741FF4552F4BF52FC274EB700269
:10057000D274752A18307403752A0A306102A18674
:1005800020740353DAFE207403752B06D0F0D0E0FC
:10059000D0D0D2AD43E610327901801479038010B7
:1005A000790A800C791E80087964800479C88000FB
:1005B0007817E4D5E0FDD8FAD9F6227A147B788052
:1005C000127A107B8C800C7A0D7BB480067A0B7BC0
:1005D000C880007902B27DE4C296D5E0FDD297D5FD
:1005E000E0FDC297D5E0FDD296D5E0FDD295E57647
:1005F000D5E0FDC2957496D5E0FDD9D9EAF8D5E0ED
:10060000FDD8FBDBCEC29622C37C007D0075F000D6
:1006100005F0EA33FAEB33FB50F6EB13FBEA13FA7F
:10062000C3E9FFE8FEE89AF8E99BF95004EFF9EE18
:10063000F8B3EC33FCED33FDD5F0DFEDF9ECF82247
:10064000E889F08A20D2D4F8A9F07B0030F70B7B40
:10065000FFF42401F8E9F43400F9E88520F0A4ADB2
:10066000F0F8E98520F0A4AFF0FEED2EF974003F1C
:10067000FA7C04C3EA13FAE913F9E813F8DCF48B03
:10068000F030F70AE8F42401F8E9F43400F9E889D5
:10069000F0C2D4F8A9F0227882B604028051C3E5F2
:1006A0005F940140028012852224E4F545F546F569
:1006B00047F548F549C26D80367882E6FCD26DE593
:1006C00022F523783879C7AA40AB41C3EB13FBEA84
:1006D00013FAEC146013C3EB13FBEA13FAEC1414D3
:1006E0006007C3EB13FBEA13FAD108884589462259
:1006F000C3E5459523F8E5469400F9500BC3E8940B
:1007000080E994FF40138015C3E8947FE99400507A
:1007100002800A787F79008004788079FF884A898E
:100720004B22E54A2547F8E54B3548F9854B20E44F
:10073000300701F43549FA30E708C3EA94F0401273
:100740008016C3EA940F5002800E78FF79FF7A0F6B
:100750008006780079007AF0C3E52495645009C3D7
:10076000740195245009800CE54B20E70D8005E5C8
:100770004B30E706884789488A492278A4E6FAC3BD
:10078000E54A33F8E54B33F9D140E930E70BC3E8EC
:100790009480E994FF4013E1AEC3E8947FE99400AC
:1007A0005002E1AE787F7900E1AE788079FFE820F1
:1007B000E713C3E52398F84008C3E894014002809A
:1007C000117801800DE8F424012523F8400280020D
:1007D00078FF884C2278A5E6FAA848A949D140E9D3
:1007E00030E70BC3E89401E994FF40138015C3E898
:1007F00094FFE994005002800A78FF790080047821
:100800000179FFE920E713C3E54C98F84008C3E8F5
:100810009401400280117801800DE8F42401254CF8
:10082000F84002800278FF88242278FFC2642069A1
:100830003D206A12D264C3E541940A4009C3E5250C
:1008400094405002C26479A1E76023E541601F74BF
:10085000FF8541F0848539F0306A0375F005A4F80E
:10086000C5F0600278FFC3E895675002A867886604
:1008700022C3E5409440E5419401E566500314012C
:1008800082046002F5662280002275E89022788357
:10089000E6FFE5E820ECF7A8BDA9BE0573C3E57344
:1008A0009408404F757300E9FA79A0E76041EA7057
:1008B00006E5746018800CC3E89574600EE574500A
:1008C00005600A1480070460FA8002E574F574C3B9
:1008D000946D401B7564C0C394044013756480C359
:1008E0009404400B756440C3940440037564007520
:1008F000BB0822E5642410500274FFF5647982B7C6
:100900000402211AC3A864E524985002A824C3E86D
:1009100095664002A86688258826E573B4070375A6
:10092000BB1022743279A687F0A4C5F0A2F733F881
:10093000C3E895644002A864882288248825882614
:100940008867227540007541F022C2AF75C820A8A3
:10095000CCA9CDAA3A30CF010A75C824D2AFAB3B9F
:10096000AC3C883B893CC3E89BF8E99C206908F9CA
:10097000306702415F21BCAD3D8A3DF9EA9DFA60D6
:100980000478FF79FFAE3EAF3F8B3E8C3FC3EC9FB8
:10099000FCC3E99CF542A83BA93CC3E89EF8E99F4B
:1009A000F9C3E54113FBE54013FAE82AF540E93BBA
:1009B000F54150067540FF7541FF4106AA40AB4125
:1009C000AC40AD417E047F02C3EB940440021E1F85
:1009D000C3EB940840021E1FC3ED13FDEC13FCDEB5
:1009E000F7C3EA9CFAEB9DFBEF6009C3E913F9E852
:1009F00013F8DFF7EA28FAEB39FB8A408B415006FF
:100A00007BFF8B408B41C3EB94025002D26730696D
:100A1000047F0341317892E6FFC3E53794824011A9
:100A20000FC3E53794A040010FC3EF940640027F47
:100A3000057E05E541C4540FF9E541C454F0F8E5DD
:100A400040C4540F28F8C3E89EFAE99400FB40091B
:100A5000C3EA9402EB940050047A02E4FB41ABAA8F
:100A600040AB41EBC4FEEAC4540F4EFCC3EA9CFA0F
:100A7000EB9400FBC3E813C313F8EA28FAEB340045
:100A8000FB8A408B41C3EB94024002C2677805EBBE
:100A9000C4FE7B00EAC4540F4EFAC3EA98FA40053C
:100AA000C3940250027A027892E6FF30600241ABB2
:100AB000855256855357D26043E680C3E49AF8E4E2
:100AC0009BF93067026144E8FAE9FBD3E913FDE8DA
:100AD00013FC88528953C3EF94036037EF20E00C76
:100AE000E82CF8E93DF9ECFAEDFB8013E828F8E989
:100AF00039F9C3E82402F8E93400F97AFE7BFFC330
:100B0000EF9403400E8A548B55884E894F8C508D3C
:100B1000516178885489558A4E8B4F8C508D513055
:100B20006920C3E53394034019E542A2E713F8E5D1
:100B300055F4240138400B20E7087554FFF42401D4
:100B4000F5556178E8FAD3E813FC8852C3EF9403B3
:100B50006020EF20E007E82CF8ECFA6164E8282434
:100B600002F87AFEC3EF940340088A54884E8C50F2
:100B7000617888548A4E8C50E56BC3335002646BA5
:100B8000F56B3060026182753402D26043E680E525
:100B90002D54066026A840A941C3E913F9E813F8CB
:100BA000C2AF53E67F759100C3E498F594E499F5DC
:100BB00095759104D26043E680D2AF22D265754428
:100BC00000752000306B03752040800ED26575449F
:100BD00000752040306B03752000D2AF780120678C
:100BE00022E52D54066002C265C3E5419405401319
:100BF000780294054008780394054002780630692D
:100C000002780A206019E544601530690AC3E533AB
:100C100094034003D53406D2AFD26C81AB718AD233
:100C2000AF0000C2AF206726E541C3FB940F40022E
:100C30007B0FEB240530730123306A027428206295
:100C40000123F93069027982E58BC39940B50544E7
:100C5000E59B5440B52002819530690A08C3E894A9
:100C60000A400108810320650261DAC26553E67F0C
:100C70007591003067107594007595FE759104D2DA
:100C80006043E68061DAAE40AF41C3E49EF594E490
:100C90009FF595817CC3E5339402500261DA30659B
:100CA0000261DAD80281A98103C26C53E67F759193
:100CB00000855494855595759104854E56854F57FA
:100CC000D26043E680D2AFE52D54066007206A0269
:100CD00005338010306C0D206B0A206507158115D7
:100CE000810215482278003064053065027801E5FC
:100CF0003775F007A4F9E5F028F5F0E9A2F013A2A2
:100D0000F113A2F213F537C394785003753778C303
:100D1000E53795384008D266C295C293C2973060D5
:100D200002A11E855056855157D26043E68022208D
:100D30007D10C2AF754302C296D294D2AF759F1197
:100D4000C1F8C2AF754302C296D292D2AF759F115D
:100D5000C1F8307243207D20C2AF75430390014635
:100D6000757E40C293C292306204D297A170D2962F
:100D7000D2AF759F13020EF8C2AF754303900146C0
:100D8000757E40C295C294306204D297A190D296EB
:100D9000D2AF759F10020EF8207D17C2AF754303C6
:100DA000900121C293306202D297D2AF759F130295
:100DB0000EF8C2AF754303900121C295306202D292
:100DC00097D2AF759F10020EF8207D10C2AF754309
:100DD00004C294D292D2AF759F10C1F8C2AF7543CE
:100DE00004C292D294D2AF759F13C1F830724320DF
:100DF0007D20C2AF754305900135757E10C297C244
:100E000096306204D295C10AD294D2AF759F110276
:100E10000EF8C2AF754305900157757E04C297C2A4
:100E200096306204D293C12AD292D2AF759F11023A
:100E30000EF8207D17C2AF754305900117C2973099
:100E40006202D295D2AF759F11020EF8C2AF754300
:100E50000590012BC2973062EBD293D2AF759F11F0
:100E6000020EF8207D10C2AF754306C292D296D210
:100E7000AF759F13C1F8C2AF754306C294D296D224
:100E8000AF759F108072307242207D20C2AF7543D3
:100E900001900157757E04C295C294306204D293CA
:100EA000C1A4D292D2AF759F10020EF8C2AF7543A3
:100EB00001900135757E10C293C292306204D295C2
:100EC000C1C4D294D2AF759F13C1F8207D16C2AFB2
:100ED00075430190012BC295306202D293D2AF7557
:100EE0009F10C1F8C2AF754301900117C2933062E1
:100EF00002D295D2AF759F13C26622900115757EFE
:100F000000C294C292C296C295C293C297C2622294
:100F1000788076090876090876040876FF08760353
:100F20000876FF08760A08760308760108760178C5
:100F30008C76010876FF0876FF0876FF0876FF08B2
:100F400076FF0876030876FF0876FF0876FF0876B6
:100F5000250876D00876280876500876040876FFAB
:100F600008760208760008767A0876FF0876010887
:100F70007601087600087603227887E6FFC272BF02
:100F80000302D2727888E6C394036008C27DE6301B
:100F9000E102D27DC27E7889E630E102D27EC3EFE3
:100FA00094026007758E01D2738005758E00C2733E
:100FB000227880E6149000809378A4F67881E61475
:100FC0009000809378A5F67886E61490008D93784B
:100FD000A6F6789CE67538FF75390CB402067538AC
:100FE000A075390AB4030675388275390578A3E609
:100FF0001490009A93F569D1FB22227896E6FA784C
:1010000097E6FB7888E6B40305C3EB940EFB307FCC
:10101000047A007BFFC3EB9AFCC3948250027C826B
:101020007575000575EC8575F0A4C3E5F0947D40F9
:10103000F222D27F120FFB1205A47A007B007C10F3
:1010400012059CE55F2AFA74003BFBDCF37C04C3C9
:10105000EB13FBEA13FADCF7FEC27F120FFB22E56B
:10106000EF20E6037520000520903FFFE520146087
:1010700006901DFF1460009304600375EF1253D9AE
:10108000BF7581C043FF8012059875EF0243B2031C
:10109000E5B3240420E70DF521E5E320E0068521F2
:1010A000B343E301120EFB7580FF75A40075F1B226
:1010B00075D4DF75900175A5FC75F2FE75D50175C7
:1010C000A60175E241E4F8F6D8FD756B01120F1028
:1010D000B18878988676753001C2AF1205AC1205DA
:1010E000BB1205A41205C11205A41205C71205A45E
:1010F000C2AF78FA79FA308507D9FBD8F7021C001D
:10110000120F79120FB1120FFA120FFB7898867630
:10111000120EFB75885075891275C8247591047577
:10112000D84075A82275B80275E690759B80759DAC
:101130000075D10E75BC5875BB0875BA1175E8807D
:10114000120598D2AF12088753DACF207E0343DA14
:1011500020307E0343DA1043DA01C2D8C27112058F
:10116000ACD2617B037A0CE55E70077A0CDB03027C
:1011700010F01205A42070030210F0C270E55FC3E6
:10118000940240E1E52F541F856160F561B560D59B
:10119000DAD5C26153DACF207E0343DA20307E03F2
:1011A00043DA10C2D8C27178A2E67008D274E52F73
:1011B00054E0F52FC2757529001205A8307409C3D3
:1011C000E529940A4002D27512059C780230740217
:1011D0007800C3E55F9840F0C2AF1205BB1205BBB3
:1011E0001205BBD2AF1205AC754D007888E6B4038A
:1011F0000241C512059C788CE6C39401500241C59A
:10120000E530C39401500241C5207433C3E55F94B7
:10121000FF500241C5C2AF1205CDD2AF1205A8C31F
:10122000E55F940150EFC2AF1205BB1205A0120595
:10123000BBD2AF1205A8C3E55F94FF40E9E1207F70
:1012400002D27F120FFB1205A8C2AFC27F120FFBA2
:10125000AE5FC3E55F947FD2AF4074120598C2AF12
:101260001205CDD2AFDFDA1132C3EE94057897F6CE
:101270001205ACB1C3D1A37F0AD27F120FFB1205B6
:10128000A8C2AFC27F120FFBAE5FC3E55F947FD2EF
:10129000AF50E4120598C2AF1205BB1205A01205AB
:1012A000BBD2AFDFD41132EE24057896F61205AC2E
:1012B000B1C3D1D21205A8120FFBC3E55F94FF5052
:1012C000024109E120C3E55F954D4003855F4D1262
:1012D00005A878017988E7B403027805C3E55F982B
:1012E000400221EBC2AF1205CD1205CD1205CDD2C1
:1012F000AF1205AC753000E4F531F5320531E5315A
:10130000F470390532789AE678191460127832143C
:10131000600D787D14600878FA146003753200C39C
:10132000E53298401715327531B478998676C2AF98
:101330001205CDD2AF789886761205A81205A0D2F4
:1013400095D297D293E52A700530740201F07801A6
:101350002074027806C3E55F9840A17888E6C394BC
:101360000360031205A8E52A70030210F0C2AF1251
:101370000EFBE4F522F523F524F525F526F56AD2D2
:10138000AF7885E6C333F568E4F545F546F547F5EE
:1013900048F549F573F52CF52DF53775730875BBD0
:1013A0001012059812088AE5E820ECFBA8BDA9BE3A
:1013B000E97001F8887412088E75730875BB10788F
:1013C00087E6FE7602120F797887EEF6C2AF756473
:1013D000FF120923852264852265852266D2AF75B6
:1013E000220175240175250175260185636C756DD3
:1013F000017888E6B40307C27D307602D27DD268D8
:10140000D269753300120E63120E86120943120957
:101410004A12094312094A120943800DC2AF120F42
:1014200079D2AF75730075BB08120BCC12069712F8
:101430000CE5120D2F12094A120BBC306D03120677
:10144000F020670312082A306703120871120CE5B6
:10145000120D5212094A120BCC306D0312072212E0
:101460000CE5120DC912094A120BBC306D031207AC
:101470007B120CE5120DEC12094A120BCC306D03F5
:101480001207D5120CE5120E6312094A12088A12CD
:101490000BBC120CE5120E8612088E12094A306936
:1014A00033206B3085676485676585636C756D0176
:1014B00079187A0CC3E53399400EC269D26A8A352D
:1014C000856764856766800CC3E55F94014003020D
:1014D0001429A150306A1A206B17E535147004C224
:1014E0006A811CF535C3E55F94014003021429802D
:1014F0005F753600C3E56278FA985054307404E59D
:101500002A604D7888E6B40317207D05207607A170
:1015100020307602A120206B07D26B85676481683A
:1015200078F0306B058567647820C3E541985002F8
:101530008129306B1BC26BC27D307602D27DD26AAC
:1015400075351285676481290536E55F6002A15310
:10155000753600C2AF120EFB7887E6FE7602120FD8
:10156000797887EEF6E4F522F523F524F525F526BE
:10157000C268D2AF120598120EFB307409C3E5366B
:101580009405400201F041F7901A0D7820B1FCE576
:1015900020B4550AA3B1FCE520B4AA028007120FBB
:1015A00010B1C3801D901A0378807B0AB1FCA30898
:1015B000DBFA901A0F788C7B18B1FCA308DBFA9049
:1015C0001A2722C2AFD13BD115901A00740ED10157
:1015D000A37404D101A37414D101901A0378807B01
:1015E0000AD100A308DBFA901A0F788C7B18D1007F
:1015F000A308DBFAD14ED12C901A2722E493F622CD
:10160000E6438F01538FFD75EF0275B7A575B7F1EE
:10161000F0538FFE22438F02438F0175EF0275B79F
:10162000A575B7F1901A0DF0538FFC22901A0D7426
:1016300055D101901A0E74AAD101227A3079D0784E
:1016400020901A40B1FCE520F709A3DAF7227A309E
:1016500079D0901A40E7D10109A3DAF922AB77A833
:1016600078BB01027980BB02027981BB03027982D7
:10167000BB04027984BB05027986BB06027992BB62
:1016800007027987BB080279A3BB0902799CBB0AD0
:10169000027988BB0B027989E8F7227C051205AC38
:1016A000DCFB22C2AF1205BB1205C11205C7120531
:1016B000CD1205A01205BB1205C11205C71205CD3A
:1016C0001205A01205BB1205C11205C71205CDD225
:1016D000AF22C2AF1205CD1205C71205C11205BB5C
:1016E0001205A01205CD1205C71205C11205BB12C5
:1016F00005A01205CD1205C71205C11205BBD2AF58
:1017000022AE77AF78C2AF1205BB1205BB1205BB84
:101710001205A0DEF21205CD1205A0DFF8D2AF222D
:10172000D1A3D19BD19B757701757801757900F1B3
:10173000017C05AD5F1205ACC3ED955F70F5C3E5A7
:101740005F9401400AC3E55F94FF403202175CD109
:101750005DB1C3D1A3C2AF75EF12D19BDCD50579C2
:10176000C3E5799403500280C6D19B0578E57714D0
:1017700090009F93F808C3E57898500280AED19B03
:10178000D19B0577C3E577940C5002809C120F1013
:09179000B1C3C2AF75EF12D19B89
:1019FD0002105F0E0414090904FF03FF0A0301011D
:101A0D0055AA01FFFFFFFFFF03FFFFFF25D0285061
:0B1A1D0004FF02007AFF01010003FF3C
:101A4000234656544C69626565323041232020207C
:101A500023424C48454C4923463333302320202031
:101A60002020202020202020202020202020202076
:101C0000C2AFC2D353D9BF7581C043B20343FF8073
:101C1000752438752503B1C975EF0275E24043F1AB
:101C20002053A4DF75D400D2857DFA780379E67C51
:101C300010752200752300901DD67B0675249875BB
:101C400025013085028142208508D8FBD9F9DCF7CF
:101C500081B4308508D8FBD9F9DCF781B4B189E4C7
:101C600093A3C39A6004DDC381B4DBDBB17B600264
:101C7000812B7B08E493FAA3B15CDBF87A30B15C8A
:101C8000752200752300B17BEAFCEBFDC3ED94FEE9
:101C9000400EB17B8A278B28ED30E0048A828B834B
:101CA000B17B7AC270D8C3ED94FE601350CEBD00F4
:101CB00025EC60097520007521FF0200008100A855
:101CC00027A9280809D804D90281D3B17FEA89AAB3
:101CD000F281C50D81A0C3ED94035049EDA2E092BD
:101CE000007AC5C3E5829400E583941C50902000DF
:101CF00010438F02438F0175B7A575B7F1F030001F
:101D00001FA827A9280809438F01538FFDD804D99C
:101D100002A12089AAE275B7A575B7F1F0A3A10DBC
:101D2000538FFC817C7AC1BD030CE493A3FAB140CC
:101D3000DCF8B138817C817EAA22AB23B15CEBFA5E
:101D4000EA6222752608C3E52313F523E52213F57D
:101D50002250066323A0632201D526EAB1C9B1C986
:101D600075260AEAF4200102D285300102C285B14B
:101D7000C9C3134002C201D526EB22B17FEAFB2082
:101D80008502A17F308502A184752608AE24AF2587
:101D9000C3EF13FFEE13FEB1CDB1C9C3EA13308513
:101DA000024480FA30E703632201C3E52313F523DD
:101DB000E52213F52250066323A0632201D526D91C
:101DC000E52265236523F52222AE24AF250E0FDE22
:101DD000FEDFFCD20122424C48656C693437316326
:041DE000F3300601D5
:00000001FF
